{
	"contracts/learnings/2_BasicCalc.sol": {
		"BasicCalc": {
			"abi": [
				{
					"inputs": [
						{
							"internalType": "uint256",
							"name": "number",
							"type": "uint256"
						}
					],
					"name": "addNumber",
					"outputs": [],
					"stateMutability": "nonpayable",
					"type": "function"
				},
				{
					"inputs": [],
					"name": "getNumber",
					"outputs": [
						{
							"internalType": "uint256",
							"name": "",
							"type": "uint256"
						}
					],
					"stateMutability": "view",
					"type": "function"
				},
				{
					"inputs": [
						{
							"internalType": "uint256",
							"name": "number",
							"type": "uint256"
						}
					],
					"name": "multiply",
					"outputs": [],
					"stateMutability": "nonpayable",
					"type": "function"
				},
				{
					"inputs": [
						{
							"internalType": "uint256",
							"name": "newNumber",
							"type": "uint256"
						}
					],
					"name": "setNumber",
					"outputs": [],
					"stateMutability": "nonpayable",
					"type": "function"
				},
				{
					"inputs": [
						{
							"internalType": "uint256",
							"name": "number",
							"type": "uint256"
						}
					],
					"name": "substract",
					"outputs": [],
					"stateMutability": "nonpayable",
					"type": "function"
				}
			],
			"devdoc": {
				"kind": "dev",
				"methods": {},
				"version": 1
			},
			"evm": {
				"assembly": "    /* \"contracts/learnings/2_BasicCalc.sol\":70:527  contract BasicCalc {... */\n  mstore(0x40, 0x80)\n    /* \"contracts/learnings/2_BasicCalc.sol\":111:114  100 */\n  0x64\n    /* \"contracts/learnings/2_BasicCalc.sol\":95:114  uint myNumber = 100 */\n  0x00\n  sstore\n    /* \"contracts/learnings/2_BasicCalc.sol\":70:527  contract BasicCalc {... */\n  callvalue\n  dup1\n  iszero\n  tag_1\n  jumpi\n  revert(0x00, 0x00)\ntag_1:\n  pop\n  dataSize(sub_0)\n  dup1\n  dataOffset(sub_0)\n  0x00\n  codecopy\n  0x00\n  return\nstop\n\nsub_0: assembly {\n        /* \"contracts/learnings/2_BasicCalc.sol\":70:527  contract BasicCalc {... */\n      mstore(0x40, 0x80)\n      callvalue\n      dup1\n      iszero\n      tag_1\n      jumpi\n      revert(0x00, 0x00)\n    tag_1:\n      pop\n      jumpi(tag_2, lt(calldatasize, 0x04))\n      shr(0xe0, calldataload(0x00))\n      dup1\n      0x3fb5c1cb\n      eq\n      tag_3\n      jumpi\n      dup1\n      0x693af854\n      eq\n      tag_4\n      jumpi\n      dup1\n      0xc6888fa1\n      eq\n      tag_5\n      jumpi\n      dup1\n      0xf2c9ecd8\n      eq\n      tag_6\n      jumpi\n      dup1\n      0xfce68023\n      eq\n      tag_7\n      jumpi\n    tag_2:\n      revert(0x00, 0x00)\n        /* \"contracts/learnings/2_BasicCalc.sol\":121:200  function setNumber(uint newNumber) public {... */\n    tag_3:\n      tag_8\n      0x04\n      dup1\n      calldatasize\n      sub\n      dup2\n      add\n      swap1\n      tag_9\n      swap2\n      swap1\n      tag_10\n      jump\t// in\n    tag_9:\n      tag_11\n      jump\t// in\n    tag_8:\n      stop\n        /* \"contracts/learnings/2_BasicCalc.sol\":372:446  function substract(uint number) public {... */\n    tag_4:\n      tag_12\n      0x04\n      dup1\n      calldatasize\n      sub\n      dup2\n      add\n      swap1\n      tag_13\n      swap2\n      swap1\n      tag_10\n      jump\t// in\n    tag_13:\n      tag_14\n      jump\t// in\n    tag_12:\n      stop\n        /* \"contracts/learnings/2_BasicCalc.sol\":452:525  function multiply(uint number) public {... */\n    tag_5:\n      tag_15\n      0x04\n      dup1\n      calldatasize\n      sub\n      dup2\n      add\n      swap1\n      tag_16\n      swap2\n      swap1\n      tag_10\n      jump\t// in\n    tag_16:\n      tag_17\n      jump\t// in\n    tag_15:\n      stop\n        /* \"contracts/learnings/2_BasicCalc.sol\":206:286  function getNumber() public view returns (uint) {... */\n    tag_6:\n      tag_18\n      tag_19\n      jump\t// in\n    tag_18:\n      mload(0x40)\n      tag_20\n      swap2\n      swap1\n      tag_21\n      jump\t// in\n    tag_20:\n      mload(0x40)\n      dup1\n      swap2\n      sub\n      swap1\n      return\n        /* \"contracts/learnings/2_BasicCalc.sol\":292:366  function addNumber(uint number) public {... */\n    tag_7:\n      tag_22\n      0x04\n      dup1\n      calldatasize\n      sub\n      dup2\n      add\n      swap1\n      tag_23\n      swap2\n      swap1\n      tag_10\n      jump\t// in\n    tag_23:\n      tag_24\n      jump\t// in\n    tag_22:\n      stop\n        /* \"contracts/learnings/2_BasicCalc.sol\":121:200  function setNumber(uint newNumber) public {... */\n    tag_11:\n        /* \"contracts/learnings/2_BasicCalc.sol\":184:193  newNumber */\n      dup1\n        /* \"contracts/learnings/2_BasicCalc.sol\":173:181  myNumber */\n      0x00\n        /* \"contracts/learnings/2_BasicCalc.sol\":173:193  myNumber = newNumber */\n      dup2\n      swap1\n      sstore\n      pop\n        /* \"contracts/learnings/2_BasicCalc.sol\":121:200  function setNumber(uint newNumber) public {... */\n      pop\n      jump\t// out\n        /* \"contracts/learnings/2_BasicCalc.sol\":372:446  function substract(uint number) public {... */\n    tag_14:\n        /* \"contracts/learnings/2_BasicCalc.sol\":433:439  number */\n      dup1\n        /* \"contracts/learnings/2_BasicCalc.sol\":421:429  myNumber */\n      0x00\n      0x00\n        /* \"contracts/learnings/2_BasicCalc.sol\":421:439  myNumber -= number */\n      dup3\n      dup3\n      sload\n      tag_27\n      swap2\n      swap1\n      tag_28\n      jump\t// in\n    tag_27:\n      swap3\n      pop\n      pop\n      dup2\n      swap1\n      sstore\n      pop\n        /* \"contracts/learnings/2_BasicCalc.sol\":372:446  function substract(uint number) public {... */\n      pop\n      jump\t// out\n        /* \"contracts/learnings/2_BasicCalc.sol\":452:525  function multiply(uint number) public {... */\n    tag_17:\n        /* \"contracts/learnings/2_BasicCalc.sol\":512:518  number */\n      dup1\n        /* \"contracts/learnings/2_BasicCalc.sol\":500:508  myNumber */\n      0x00\n      0x00\n        /* \"contracts/learnings/2_BasicCalc.sol\":500:518  myNumber *= number */\n      dup3\n      dup3\n      sload\n      tag_30\n      swap2\n      swap1\n      tag_31\n      jump\t// in\n    tag_30:\n      swap3\n      pop\n      pop\n      dup2\n      swap1\n      sstore\n      pop\n        /* \"contracts/learnings/2_BasicCalc.sol\":452:525  function multiply(uint number) public {... */\n      pop\n      jump\t// out\n        /* \"contracts/learnings/2_BasicCalc.sol\":206:286  function getNumber() public view returns (uint) {... */\n    tag_19:\n        /* \"contracts/learnings/2_BasicCalc.sol\":248:252  uint */\n      0x00\n        /* \"contracts/learnings/2_BasicCalc.sol\":271:279  myNumber */\n      sload(0x00)\n        /* \"contracts/learnings/2_BasicCalc.sol\":264:279  return myNumber */\n      swap1\n      pop\n        /* \"contracts/learnings/2_BasicCalc.sol\":206:286  function getNumber() public view returns (uint) {... */\n      swap1\n      jump\t// out\n        /* \"contracts/learnings/2_BasicCalc.sol\":292:366  function addNumber(uint number) public {... */\n    tag_24:\n        /* \"contracts/learnings/2_BasicCalc.sol\":353:359  number */\n      dup1\n        /* \"contracts/learnings/2_BasicCalc.sol\":341:349  myNumber */\n      0x00\n      0x00\n        /* \"contracts/learnings/2_BasicCalc.sol\":341:359  myNumber += number */\n      dup3\n      dup3\n      sload\n      tag_34\n      swap2\n      swap1\n      tag_35\n      jump\t// in\n    tag_34:\n      swap3\n      pop\n      pop\n      dup2\n      swap1\n      sstore\n      pop\n        /* \"contracts/learnings/2_BasicCalc.sol\":292:366  function addNumber(uint number) public {... */\n      pop\n      jump\t// out\n        /* \"#utility.yul\":88:205   */\n    tag_37:\n        /* \"#utility.yul\":197:198   */\n      0x00\n        /* \"#utility.yul\":194:195   */\n      0x00\n        /* \"#utility.yul\":187:199   */\n      revert\n        /* \"#utility.yul\":334:411   */\n    tag_39:\n        /* \"#utility.yul\":371:378   */\n      0x00\n        /* \"#utility.yul\":400:405   */\n      dup2\n        /* \"#utility.yul\":389:405   */\n      swap1\n      pop\n        /* \"#utility.yul\":334:411   */\n      swap2\n      swap1\n      pop\n      jump\t// out\n        /* \"#utility.yul\":417:539   */\n    tag_40:\n        /* \"#utility.yul\":490:514   */\n      tag_50\n        /* \"#utility.yul\":508:513   */\n      dup2\n        /* \"#utility.yul\":490:514   */\n      tag_39\n      jump\t// in\n    tag_50:\n        /* \"#utility.yul\":483:488   */\n      dup2\n        /* \"#utility.yul\":480:515   */\n      eq\n        /* \"#utility.yul\":470:533   */\n      tag_51\n      jumpi\n        /* \"#utility.yul\":529:530   */\n      0x00\n        /* \"#utility.yul\":526:527   */\n      0x00\n        /* \"#utility.yul\":519:531   */\n      revert\n        /* \"#utility.yul\":470:533   */\n    tag_51:\n        /* \"#utility.yul\":417:539   */\n      pop\n      jump\t// out\n        /* \"#utility.yul\":545:684   */\n    tag_41:\n        /* \"#utility.yul\":591:596   */\n      0x00\n        /* \"#utility.yul\":629:635   */\n      dup2\n        /* \"#utility.yul\":616:636   */\n      calldataload\n        /* \"#utility.yul\":607:636   */\n      swap1\n      pop\n        /* \"#utility.yul\":645:678   */\n      tag_53\n        /* \"#utility.yul\":672:677   */\n      dup2\n        /* \"#utility.yul\":645:678   */\n      tag_40\n      jump\t// in\n    tag_53:\n        /* \"#utility.yul\":545:684   */\n      swap3\n      swap2\n      pop\n      pop\n      jump\t// out\n        /* \"#utility.yul\":690:1019   */\n    tag_10:\n        /* \"#utility.yul\":749:755   */\n      0x00\n        /* \"#utility.yul\":798:800   */\n      0x20\n        /* \"#utility.yul\":786:795   */\n      dup3\n        /* \"#utility.yul\":777:784   */\n      dup5\n        /* \"#utility.yul\":773:796   */\n      sub\n        /* \"#utility.yul\":769:801   */\n      slt\n        /* \"#utility.yul\":766:885   */\n      iszero\n      tag_55\n      jumpi\n        /* \"#utility.yul\":804:883   */\n      tag_56\n      tag_37\n      jump\t// in\n    tag_56:\n        /* \"#utility.yul\":766:885   */\n    tag_55:\n        /* \"#utility.yul\":924:925   */\n      0x00\n        /* \"#utility.yul\":949:1002   */\n      tag_57\n        /* \"#utility.yul\":994:1001   */\n      dup5\n        /* \"#utility.yul\":985:991   */\n      dup3\n        /* \"#utility.yul\":974:983   */\n      dup6\n        /* \"#utility.yul\":970:992   */\n      add\n        /* \"#utility.yul\":949:1002   */\n      tag_41\n      jump\t// in\n    tag_57:\n        /* \"#utility.yul\":939:1002   */\n      swap2\n      pop\n        /* \"#utility.yul\":895:1012   */\n      pop\n        /* \"#utility.yul\":690:1019   */\n      swap3\n      swap2\n      pop\n      pop\n      jump\t// out\n        /* \"#utility.yul\":1025:1143   */\n    tag_42:\n        /* \"#utility.yul\":1112:1136   */\n      tag_59\n        /* \"#utility.yul\":1130:1135   */\n      dup2\n        /* \"#utility.yul\":1112:1136   */\n      tag_39\n      jump\t// in\n    tag_59:\n        /* \"#utility.yul\":1107:1110   */\n      dup3\n        /* \"#utility.yul\":1100:1137   */\n      mstore\n        /* \"#utility.yul\":1025:1143   */\n      pop\n      pop\n      jump\t// out\n        /* \"#utility.yul\":1149:1371   */\n    tag_21:\n        /* \"#utility.yul\":1242:1246   */\n      0x00\n        /* \"#utility.yul\":1280:1282   */\n      0x20\n        /* \"#utility.yul\":1269:1278   */\n      dup3\n        /* \"#utility.yul\":1265:1283   */\n      add\n        /* \"#utility.yul\":1257:1283   */\n      swap1\n      pop\n        /* \"#utility.yul\":1293:1364   */\n      tag_61\n        /* \"#utility.yul\":1361:1362   */\n      0x00\n        /* \"#utility.yul\":1350:1359   */\n      dup4\n        /* \"#utility.yul\":1346:1363   */\n      add\n        /* \"#utility.yul\":1337:1343   */\n      dup5\n        /* \"#utility.yul\":1293:1364   */\n      tag_42\n      jump\t// in\n    tag_61:\n        /* \"#utility.yul\":1149:1371   */\n      swap3\n      swap2\n      pop\n      pop\n      jump\t// out\n        /* \"#utility.yul\":1377:1557   */\n    tag_43:\n        /* \"#utility.yul\":1425:1502   */\n      0x4e487b7100000000000000000000000000000000000000000000000000000000\n        /* \"#utility.yul\":1422:1423   */\n      0x00\n        /* \"#utility.yul\":1415:1503   */\n      mstore\n        /* \"#utility.yul\":1522:1526   */\n      0x11\n        /* \"#utility.yul\":1519:1520   */\n      0x04\n        /* \"#utility.yul\":1512:1527   */\n      mstore\n        /* \"#utility.yul\":1546:1550   */\n      0x24\n        /* \"#utility.yul\":1543:1544   */\n      0x00\n        /* \"#utility.yul\":1536:1551   */\n      revert\n        /* \"#utility.yul\":1563:1757   */\n    tag_28:\n        /* \"#utility.yul\":1603:1607   */\n      0x00\n        /* \"#utility.yul\":1623:1643   */\n      tag_64\n        /* \"#utility.yul\":1641:1642   */\n      dup3\n        /* \"#utility.yul\":1623:1643   */\n      tag_39\n      jump\t// in\n    tag_64:\n        /* \"#utility.yul\":1618:1643   */\n      swap2\n      pop\n        /* \"#utility.yul\":1657:1677   */\n      tag_65\n        /* \"#utility.yul\":1675:1676   */\n      dup4\n        /* \"#utility.yul\":1657:1677   */\n      tag_39\n      jump\t// in\n    tag_65:\n        /* \"#utility.yul\":1652:1677   */\n      swap3\n      pop\n        /* \"#utility.yul\":1701:1702   */\n      dup3\n        /* \"#utility.yul\":1698:1699   */\n      dup3\n        /* \"#utility.yul\":1694:1703   */\n      sub\n        /* \"#utility.yul\":1686:1703   */\n      swap1\n      pop\n        /* \"#utility.yul\":1725:1726   */\n      dup2\n        /* \"#utility.yul\":1719:1723   */\n      dup2\n        /* \"#utility.yul\":1716:1727   */\n      gt\n        /* \"#utility.yul\":1713:1750   */\n      iszero\n      tag_66\n      jumpi\n        /* \"#utility.yul\":1730:1748   */\n      tag_67\n      tag_43\n      jump\t// in\n    tag_67:\n        /* \"#utility.yul\":1713:1750   */\n    tag_66:\n        /* \"#utility.yul\":1563:1757   */\n      swap3\n      swap2\n      pop\n      pop\n      jump\t// out\n        /* \"#utility.yul\":1763:2173   */\n    tag_31:\n        /* \"#utility.yul\":1803:1810   */\n      0x00\n        /* \"#utility.yul\":1826:1846   */\n      tag_69\n        /* \"#utility.yul\":1844:1845   */\n      dup3\n        /* \"#utility.yul\":1826:1846   */\n      tag_39\n      jump\t// in\n    tag_69:\n        /* \"#utility.yul\":1821:1846   */\n      swap2\n      pop\n        /* \"#utility.yul\":1860:1880   */\n      tag_70\n        /* \"#utility.yul\":1878:1879   */\n      dup4\n        /* \"#utility.yul\":1860:1880   */\n      tag_39\n      jump\t// in\n    tag_70:\n        /* \"#utility.yul\":1855:1880   */\n      swap3\n      pop\n        /* \"#utility.yul\":1915:1916   */\n      dup3\n        /* \"#utility.yul\":1912:1913   */\n      dup3\n        /* \"#utility.yul\":1908:1917   */\n      mul\n        /* \"#utility.yul\":1937:1967   */\n      tag_71\n        /* \"#utility.yul\":1955:1966   */\n      dup2\n        /* \"#utility.yul\":1937:1967   */\n      tag_39\n      jump\t// in\n    tag_71:\n        /* \"#utility.yul\":1926:1967   */\n      swap2\n      pop\n        /* \"#utility.yul\":2116:2117   */\n      dup3\n        /* \"#utility.yul\":2107:2114   */\n      dup3\n        /* \"#utility.yul\":2103:2118   */\n      div\n        /* \"#utility.yul\":2100:2101   */\n      dup5\n        /* \"#utility.yul\":2097:2119   */\n      eq\n        /* \"#utility.yul\":2077:2078   */\n      dup4\n        /* \"#utility.yul\":2070:2079   */\n      iszero\n        /* \"#utility.yul\":2050:2133   */\n      or\n        /* \"#utility.yul\":2027:2166   */\n      tag_72\n      jumpi\n        /* \"#utility.yul\":2146:2164   */\n      tag_73\n      tag_43\n      jump\t// in\n    tag_73:\n        /* \"#utility.yul\":2027:2166   */\n    tag_72:\n        /* \"#utility.yul\":1811:2173   */\n      pop\n        /* \"#utility.yul\":1763:2173   */\n      swap3\n      swap2\n      pop\n      pop\n      jump\t// out\n        /* \"#utility.yul\":2179:2370   */\n    tag_35:\n        /* \"#utility.yul\":2219:2222   */\n      0x00\n        /* \"#utility.yul\":2238:2258   */\n      tag_75\n        /* \"#utility.yul\":2256:2257   */\n      dup3\n        /* \"#utility.yul\":2238:2258   */\n      tag_39\n      jump\t// in\n    tag_75:\n        /* \"#utility.yul\":2233:2258   */\n      swap2\n      pop\n        /* \"#utility.yul\":2272:2292   */\n      tag_76\n        /* \"#utility.yul\":2290:2291   */\n      dup4\n        /* \"#utility.yul\":2272:2292   */\n      tag_39\n      jump\t// in\n    tag_76:\n        /* \"#utility.yul\":2267:2292   */\n      swap3\n      pop\n        /* \"#utility.yul\":2315:2316   */\n      dup3\n        /* \"#utility.yul\":2312:2313   */\n      dup3\n        /* \"#utility.yul\":2308:2317   */\n      add\n        /* \"#utility.yul\":2301:2317   */\n      swap1\n      pop\n        /* \"#utility.yul\":2336:2339   */\n      dup1\n        /* \"#utility.yul\":2333:2334   */\n      dup3\n        /* \"#utility.yul\":2330:2340   */\n      gt\n        /* \"#utility.yul\":2327:2363   */\n      iszero\n      tag_77\n      jumpi\n        /* \"#utility.yul\":2343:2361   */\n      tag_78\n      tag_43\n      jump\t// in\n    tag_78:\n        /* \"#utility.yul\":2327:2363   */\n    tag_77:\n        /* \"#utility.yul\":2179:2370   */\n      swap3\n      swap2\n      pop\n      pop\n      jump\t// out\n\n    auxdata: 0xa264697066735822122053366db6a9e9eff8d49bab681efbc903fcaf7e0f4671c4452b45a595e6bd218e64736f6c634300081e0033\n}\n",
				"bytecode": {
					"linkReferences": {},
					"object": "608060405260645f553480156012575f5ffd5b506102da806100205f395ff3fe608060405234801561000f575f5ffd5b5060043610610055575f3560e01c80633fb5c1cb14610059578063693af85414610075578063c6888fa114610091578063f2c9ecd8146100ad578063fce68023146100cb575b5f5ffd5b610073600480360381019061006e919061017d565b6100e7565b005b61008f600480360381019061008a919061017d565b6100f0565b005b6100ab60048036038101906100a6919061017d565b61010a565b005b6100b5610124565b6040516100c291906101b7565b60405180910390f35b6100e560048036038101906100e0919061017d565b61012c565b005b805f8190555050565b805f5f82825461010091906101fd565b9250508190555050565b805f5f82825461011a9190610230565b9250508190555050565b5f5f54905090565b805f5f82825461013c9190610271565b9250508190555050565b5f5ffd5b5f819050919050565b61015c8161014a565b8114610166575f5ffd5b50565b5f8135905061017781610153565b92915050565b5f6020828403121561019257610191610146565b5b5f61019f84828501610169565b91505092915050565b6101b18161014a565b82525050565b5f6020820190506101ca5f8301846101a8565b92915050565b7f4e487b71000000000000000000000000000000000000000000000000000000005f52601160045260245ffd5b5f6102078261014a565b91506102128361014a565b925082820390508181111561022a576102296101d0565b5b92915050565b5f61023a8261014a565b91506102458361014a565b92508282026102538161014a565b9150828204841483151761026a576102696101d0565b5b5092915050565b5f61027b8261014a565b91506102868361014a565b925082820190508082111561029e5761029d6101d0565b5b9291505056fea264697066735822122053366db6a9e9eff8d49bab681efbc903fcaf7e0f4671c4452b45a595e6bd218e64736f6c634300081e0033",
					"opcodes": "PUSH1 0x80 PUSH1 0x40 MSTORE PUSH1 0x64 PUSH0 SSTORE CALLVALUE DUP1 ISZERO PUSH1 0x12 JUMPI PUSH0 PUSH0 REVERT JUMPDEST POP PUSH2 0x2DA DUP1 PUSH2 0x20 PUSH0 CODECOPY PUSH0 RETURN INVALID PUSH1 0x80 PUSH1 0x40 MSTORE CALLVALUE DUP1 ISZERO PUSH2 0xF JUMPI PUSH0 PUSH0 REVERT JUMPDEST POP PUSH1 0x4 CALLDATASIZE LT PUSH2 0x55 JUMPI PUSH0 CALLDATALOAD PUSH1 0xE0 SHR DUP1 PUSH4 0x3FB5C1CB EQ PUSH2 0x59 JUMPI DUP1 PUSH4 0x693AF854 EQ PUSH2 0x75 JUMPI DUP1 PUSH4 0xC6888FA1 EQ PUSH2 0x91 JUMPI DUP1 PUSH4 0xF2C9ECD8 EQ PUSH2 0xAD JUMPI DUP1 PUSH4 0xFCE68023 EQ PUSH2 0xCB JUMPI JUMPDEST PUSH0 PUSH0 REVERT JUMPDEST PUSH2 0x73 PUSH1 0x4 DUP1 CALLDATASIZE SUB DUP2 ADD SWAP1 PUSH2 0x6E SWAP2 SWAP1 PUSH2 0x17D JUMP JUMPDEST PUSH2 0xE7 JUMP JUMPDEST STOP JUMPDEST PUSH2 0x8F PUSH1 0x4 DUP1 CALLDATASIZE SUB DUP2 ADD SWAP1 PUSH2 0x8A SWAP2 SWAP1 PUSH2 0x17D JUMP JUMPDEST PUSH2 0xF0 JUMP JUMPDEST STOP JUMPDEST PUSH2 0xAB PUSH1 0x4 DUP1 CALLDATASIZE SUB DUP2 ADD SWAP1 PUSH2 0xA6 SWAP2 SWAP1 PUSH2 0x17D JUMP JUMPDEST PUSH2 0x10A JUMP JUMPDEST STOP JUMPDEST PUSH2 0xB5 PUSH2 0x124 JUMP JUMPDEST PUSH1 0x40 MLOAD PUSH2 0xC2 SWAP2 SWAP1 PUSH2 0x1B7 JUMP JUMPDEST PUSH1 0x40 MLOAD DUP1 SWAP2 SUB SWAP1 RETURN JUMPDEST PUSH2 0xE5 PUSH1 0x4 DUP1 CALLDATASIZE SUB DUP2 ADD SWAP1 PUSH2 0xE0 SWAP2 SWAP1 PUSH2 0x17D JUMP JUMPDEST PUSH2 0x12C JUMP JUMPDEST STOP JUMPDEST DUP1 PUSH0 DUP2 SWAP1 SSTORE POP POP JUMP JUMPDEST DUP1 PUSH0 PUSH0 DUP3 DUP3 SLOAD PUSH2 0x100 SWAP2 SWAP1 PUSH2 0x1FD JUMP JUMPDEST SWAP3 POP POP DUP2 SWAP1 SSTORE POP POP JUMP JUMPDEST DUP1 PUSH0 PUSH0 DUP3 DUP3 SLOAD PUSH2 0x11A SWAP2 SWAP1 PUSH2 0x230 JUMP JUMPDEST SWAP3 POP POP DUP2 SWAP1 SSTORE POP POP JUMP JUMPDEST PUSH0 PUSH0 SLOAD SWAP1 POP SWAP1 JUMP JUMPDEST DUP1 PUSH0 PUSH0 DUP3 DUP3 SLOAD PUSH2 0x13C SWAP2 SWAP1 PUSH2 0x271 JUMP JUMPDEST SWAP3 POP POP DUP2 SWAP1 SSTORE POP POP JUMP JUMPDEST PUSH0 PUSH0 REVERT JUMPDEST PUSH0 DUP2 SWAP1 POP SWAP2 SWAP1 POP JUMP JUMPDEST PUSH2 0x15C DUP2 PUSH2 0x14A JUMP JUMPDEST DUP2 EQ PUSH2 0x166 JUMPI PUSH0 PUSH0 REVERT JUMPDEST POP JUMP JUMPDEST PUSH0 DUP2 CALLDATALOAD SWAP1 POP PUSH2 0x177 DUP2 PUSH2 0x153 JUMP JUMPDEST SWAP3 SWAP2 POP POP JUMP JUMPDEST PUSH0 PUSH1 0x20 DUP3 DUP5 SUB SLT ISZERO PUSH2 0x192 JUMPI PUSH2 0x191 PUSH2 0x146 JUMP JUMPDEST JUMPDEST PUSH0 PUSH2 0x19F DUP5 DUP3 DUP6 ADD PUSH2 0x169 JUMP JUMPDEST SWAP2 POP POP SWAP3 SWAP2 POP POP JUMP JUMPDEST PUSH2 0x1B1 DUP2 PUSH2 0x14A JUMP JUMPDEST DUP3 MSTORE POP POP JUMP JUMPDEST PUSH0 PUSH1 0x20 DUP3 ADD SWAP1 POP PUSH2 0x1CA PUSH0 DUP4 ADD DUP5 PUSH2 0x1A8 JUMP JUMPDEST SWAP3 SWAP2 POP POP JUMP JUMPDEST PUSH32 0x4E487B7100000000000000000000000000000000000000000000000000000000 PUSH0 MSTORE PUSH1 0x11 PUSH1 0x4 MSTORE PUSH1 0x24 PUSH0 REVERT JUMPDEST PUSH0 PUSH2 0x207 DUP3 PUSH2 0x14A JUMP JUMPDEST SWAP2 POP PUSH2 0x212 DUP4 PUSH2 0x14A JUMP JUMPDEST SWAP3 POP DUP3 DUP3 SUB SWAP1 POP DUP2 DUP2 GT ISZERO PUSH2 0x22A JUMPI PUSH2 0x229 PUSH2 0x1D0 JUMP JUMPDEST JUMPDEST SWAP3 SWAP2 POP POP JUMP JUMPDEST PUSH0 PUSH2 0x23A DUP3 PUSH2 0x14A JUMP JUMPDEST SWAP2 POP PUSH2 0x245 DUP4 PUSH2 0x14A JUMP JUMPDEST SWAP3 POP DUP3 DUP3 MUL PUSH2 0x253 DUP2 PUSH2 0x14A JUMP JUMPDEST SWAP2 POP DUP3 DUP3 DIV DUP5 EQ DUP4 ISZERO OR PUSH2 0x26A JUMPI PUSH2 0x269 PUSH2 0x1D0 JUMP JUMPDEST JUMPDEST POP SWAP3 SWAP2 POP POP JUMP JUMPDEST PUSH0 PUSH2 0x27B DUP3 PUSH2 0x14A JUMP JUMPDEST SWAP2 POP PUSH2 0x286 DUP4 PUSH2 0x14A JUMP JUMPDEST SWAP3 POP DUP3 DUP3 ADD SWAP1 POP DUP1 DUP3 GT ISZERO PUSH2 0x29E JUMPI PUSH2 0x29D PUSH2 0x1D0 JUMP JUMPDEST JUMPDEST SWAP3 SWAP2 POP POP JUMP INVALID LOG2 PUSH5 0x6970667358 0x22 SLT KECCAK256 MSTORE8 CALLDATASIZE PUSH14 0xB6A9E9EFF8D49BAB681EFBC903FC 0xAF PUSH31 0xF4671C4452B45A595E6BD218E64736F6C634300081E003300000000000000 "
				},
				"gasEstimates": {
					"creation": {
						"codeDepositCost": "146000",
						"executionCost": "22293",
						"totalCost": "168293"
					},
					"external": {
						"addNumber(uint256)": "infinite",
						"getNumber()": "2475",
						"multiply(uint256)": "infinite",
						"setNumber(uint256)": "22492",
						"substract(uint256)": "infinite"
					}
				},
				"methodIdentifiers": {
					"addNumber(uint256)": "fce68023",
					"getNumber()": "f2c9ecd8",
					"multiply(uint256)": "c6888fa1",
					"setNumber(uint256)": "3fb5c1cb",
					"substract(uint256)": "693af854"
				}
			},
			"storageLayout": {
				"storage": [
					{
						"astId": 4,
						"contract": "contracts/learnings/2_BasicCalc.sol:BasicCalc",
						"label": "myNumber",
						"offset": 0,
						"slot": "0",
						"type": "t_uint256"
					}
				],
				"types": {
					"t_uint256": {
						"encoding": "inplace",
						"label": "uint256",
						"numberOfBytes": "32"
					}
				}
			},
			"userdoc": {
				"kind": "user",
				"methods": {},
				"version": 1
			}
		}
	}
}