{
	"contracts/learnings/1_SimpleWallet.sol": {
		"SimpleWallet": {
			"abi": [
				{
					"inputs": [],
					"stateMutability": "nonpayable",
					"type": "constructor"
				},
				{
					"anonymous": false,
					"inputs": [
						{
							"indexed": true,
							"internalType": "address",
							"name": "user",
							"type": "address"
						},
						{
							"indexed": false,
							"internalType": "uint256",
							"name": "amount",
							"type": "uint256"
						}
					],
					"name": "Deposit",
					"type": "event"
				},
				{
					"anonymous": false,
					"inputs": [
						{
							"indexed": true,
							"internalType": "address",
							"name": "from",
							"type": "address"
						},
						{
							"indexed": true,
							"internalType": "address",
							"name": "to",
							"type": "address"
						},
						{
							"indexed": false,
							"internalType": "uint256",
							"name": "amount",
							"type": "uint256"
						}
					],
					"name": "Transfer",
					"type": "event"
				},
				{
					"anonymous": false,
					"inputs": [
						{
							"indexed": true,
							"internalType": "address",
							"name": "user",
							"type": "address"
						},
						{
							"indexed": false,
							"internalType": "uint256",
							"name": "amount",
							"type": "uint256"
						}
					],
					"name": "Withdraw",
					"type": "event"
				},
				{
					"stateMutability": "payable",
					"type": "fallback"
				},
				{
					"inputs": [],
					"name": "deposit",
					"outputs": [],
					"stateMutability": "payable",
					"type": "function"
				},
				{
					"stateMutability": "payable",
					"type": "receive"
				}
			],
			"devdoc": {
				"kind": "dev",
				"methods": {},
				"version": 1
			},
			"evm": {
				"assembly": "    /* \"contracts/learnings/1_SimpleWallet.sol\":70:966  contract SimpleWallet {... */\n  mstore(0x40, 0x80)\n    /* \"contracts/learnings/1_SimpleWallet.sol\":126:175  constructor() {... */\n  callvalue\n  dup1\n  iszero\n  tag_1\n  jumpi\n  revert(0x00, 0x00)\ntag_1:\n  pop\n    /* \"contracts/learnings/1_SimpleWallet.sol\":158:168  msg.sender */\n  caller\n    /* \"contracts/learnings/1_SimpleWallet.sol\":150:155  owner */\n  0x00\n  0x00\n    /* \"contracts/learnings/1_SimpleWallet.sol\":150:168  owner = msg.sender */\n  0x0100\n  exp\n  dup2\n  sload\n  dup2\n  0xffffffffffffffffffffffffffffffffffffffff\n  mul\n  not\n  and\n  swap1\n  dup4\n  0xffffffffffffffffffffffffffffffffffffffff\n  and\n  mul\n  or\n  swap1\n  sstore\n  pop\n    /* \"contracts/learnings/1_SimpleWallet.sol\":70:966  contract SimpleWallet {... */\n  dataSize(sub_0)\n  dup1\n  dataOffset(sub_0)\n  0x00\n  codecopy\n  0x00\n  return\nstop\n\nsub_0: assembly {\n        /* \"contracts/learnings/1_SimpleWallet.sol\":70:966  contract SimpleWallet {... */\n      mstore(0x40, 0x80)\n      jumpi(tag_1, lt(calldatasize, 0x04))\n      shr(0xe0, calldataload(0x00))\n      dup1\n      0xd0e30db0\n      eq\n      tag_3\n      jumpi\n      jump(tag_2)\n    tag_1:\n      jumpi(tag_2, calldatasize)\n        /* \"contracts/learnings/1_SimpleWallet.sol\":721:731  _deposit() */\n      tag_6\n        /* \"contracts/learnings/1_SimpleWallet.sol\":721:729  _deposit */\n      tag_7\n        /* \"contracts/learnings/1_SimpleWallet.sol\":721:731  _deposit() */\n      jump\t// in\n    tag_6:\n        /* \"contracts/learnings/1_SimpleWallet.sol\":70:966  contract SimpleWallet {... */\n      stop\n    tag_2:\n        /* \"contracts/learnings/1_SimpleWallet.sol\":782:792  _deposit() */\n      tag_10\n        /* \"contracts/learnings/1_SimpleWallet.sol\":782:790  _deposit */\n      tag_7\n        /* \"contracts/learnings/1_SimpleWallet.sol\":782:792  _deposit() */\n      jump\t// in\n    tag_10:\n        /* \"contracts/learnings/1_SimpleWallet.sol\":70:966  contract SimpleWallet {... */\n      stop\n        /* \"contracts/learnings/1_SimpleWallet.sol\":615:678  function deposit() external payable {... */\n    tag_3:\n      tag_11\n      tag_12\n      jump\t// in\n    tag_11:\n      stop\n        /* \"contracts/learnings/1_SimpleWallet.sol\":414:609  function _deposit() private {... */\n    tag_7:\n        /* \"contracts/learnings/1_SimpleWallet.sol\":472:473  0 */\n      0x00\n        /* \"contracts/learnings/1_SimpleWallet.sol\":460:469  msg.value */\n      callvalue\n        /* \"contracts/learnings/1_SimpleWallet.sol\":460:473  msg.value > 0 */\n      gt\n        /* \"contracts/learnings/1_SimpleWallet.sol\":452:514  require(msg.value > 0, \"Jumlah depo harus lebih besar dari 0\") */\n      tag_14\n      jumpi\n      mload(0x40)\n      0x08c379a000000000000000000000000000000000000000000000000000000000\n      dup2\n      mstore\n      0x04\n      add\n      tag_15\n      swap1\n      tag_16\n      jump\t// in\n    tag_15:\n      mload(0x40)\n      dup1\n      swap2\n      sub\n      swap1\n      revert\n    tag_14:\n        /* \"contracts/learnings/1_SimpleWallet.sol\":548:557  msg.value */\n      callvalue\n        /* \"contracts/learnings/1_SimpleWallet.sol\":524:532  balances */\n      0x01\n        /* \"contracts/learnings/1_SimpleWallet.sol\":524:544  balances[msg.sender] */\n      0x00\n        /* \"contracts/learnings/1_SimpleWallet.sol\":533:543  msg.sender */\n      caller\n        /* \"contracts/learnings/1_SimpleWallet.sol\":524:544  balances[msg.sender] */\n      0xffffffffffffffffffffffffffffffffffffffff\n      and\n      0xffffffffffffffffffffffffffffffffffffffff\n      and\n      dup2\n      mstore\n      0x20\n      add\n      swap1\n      dup2\n      mstore\n      0x20\n      add\n      0x00\n      keccak256\n      0x00\n        /* \"contracts/learnings/1_SimpleWallet.sol\":524:557  balances[msg.sender] += msg.value */\n      dup3\n      dup3\n      sload\n      tag_17\n      swap2\n      swap1\n      tag_18\n      jump\t// in\n    tag_17:\n      swap3\n      pop\n      pop\n      dup2\n      swap1\n      sstore\n      pop\n        /* \"contracts/learnings/1_SimpleWallet.sol\":580:590  msg.sender */\n      caller\n        /* \"contracts/learnings/1_SimpleWallet.sol\":572:602  Deposit(msg.sender, msg.value) */\n      0xffffffffffffffffffffffffffffffffffffffff\n      and\n      0xe1fffcc4923d04b559f4d29a8bfc6cda04eb5b0d3c460751c2402c5c5cc9109c\n        /* \"contracts/learnings/1_SimpleWallet.sol\":592:601  msg.value */\n      callvalue\n        /* \"contracts/learnings/1_SimpleWallet.sol\":572:602  Deposit(msg.sender, msg.value) */\n      mload(0x40)\n      tag_19\n      swap2\n      swap1\n      tag_20\n      jump\t// in\n    tag_19:\n      mload(0x40)\n      dup1\n      swap2\n      sub\n      swap1\n      log2\n        /* \"contracts/learnings/1_SimpleWallet.sol\":414:609  function _deposit() private {... */\n      jump\t// out\n        /* \"contracts/learnings/1_SimpleWallet.sol\":615:678  function deposit() external payable {... */\n    tag_12:\n        /* \"contracts/learnings/1_SimpleWallet.sol\":661:671  _deposit() */\n      tag_22\n        /* \"contracts/learnings/1_SimpleWallet.sol\":661:669  _deposit */\n      tag_7\n        /* \"contracts/learnings/1_SimpleWallet.sol\":661:671  _deposit() */\n      jump\t// in\n    tag_22:\n        /* \"contracts/learnings/1_SimpleWallet.sol\":615:678  function deposit() external payable {... */\n      jump\t// out\n        /* \"#utility.yul\":7:176   */\n    tag_23:\n        /* \"#utility.yul\":91:102   */\n      0x00\n        /* \"#utility.yul\":125:131   */\n      dup3\n        /* \"#utility.yul\":120:123   */\n      dup3\n        /* \"#utility.yul\":113:132   */\n      mstore\n        /* \"#utility.yul\":165:169   */\n      0x20\n        /* \"#utility.yul\":160:163   */\n      dup3\n        /* \"#utility.yul\":156:170   */\n      add\n        /* \"#utility.yul\":141:170   */\n      swap1\n      pop\n        /* \"#utility.yul\":7:176   */\n      swap3\n      swap2\n      pop\n      pop\n      jump\t// out\n        /* \"#utility.yul\":182:405   */\n    tag_24:\n        /* \"#utility.yul\":322:356   */\n      0x4a756d6c6168206465706f206861727573206c65626968206265736172206461\n        /* \"#utility.yul\":318:319   */\n      0x00\n        /* \"#utility.yul\":310:316   */\n      dup3\n        /* \"#utility.yul\":306:320   */\n      add\n        /* \"#utility.yul\":299:357   */\n      mstore\n        /* \"#utility.yul\":391:397   */\n      0x7269203000000000000000000000000000000000000000000000000000000000\n        /* \"#utility.yul\":386:388   */\n      0x20\n        /* \"#utility.yul\":378:384   */\n      dup3\n        /* \"#utility.yul\":374:389   */\n      add\n        /* \"#utility.yul\":367:398   */\n      mstore\n        /* \"#utility.yul\":182:405   */\n      pop\n      jump\t// out\n        /* \"#utility.yul\":411:777   */\n    tag_25:\n        /* \"#utility.yul\":553:556   */\n      0x00\n        /* \"#utility.yul\":574:641   */\n      tag_33\n        /* \"#utility.yul\":638:640   */\n      0x24\n        /* \"#utility.yul\":633:636   */\n      dup4\n        /* \"#utility.yul\":574:641   */\n      tag_23\n      jump\t// in\n    tag_33:\n        /* \"#utility.yul\":567:641   */\n      swap2\n      pop\n        /* \"#utility.yul\":650:743   */\n      tag_34\n        /* \"#utility.yul\":739:742   */\n      dup3\n        /* \"#utility.yul\":650:743   */\n      tag_24\n      jump\t// in\n    tag_34:\n        /* \"#utility.yul\":768:770   */\n      0x40\n        /* \"#utility.yul\":763:766   */\n      dup3\n        /* \"#utility.yul\":759:771   */\n      add\n        /* \"#utility.yul\":752:771   */\n      swap1\n      pop\n        /* \"#utility.yul\":411:777   */\n      swap2\n      swap1\n      pop\n      jump\t// out\n        /* \"#utility.yul\":783:1202   */\n    tag_16:\n        /* \"#utility.yul\":949:953   */\n      0x00\n        /* \"#utility.yul\":987:989   */\n      0x20\n        /* \"#utility.yul\":976:985   */\n      dup3\n        /* \"#utility.yul\":972:990   */\n      add\n        /* \"#utility.yul\":964:990   */\n      swap1\n      pop\n        /* \"#utility.yul\":1036:1045   */\n      dup2\n        /* \"#utility.yul\":1030:1034   */\n      dup2\n        /* \"#utility.yul\":1026:1046   */\n      sub\n        /* \"#utility.yul\":1022:1023   */\n      0x00\n        /* \"#utility.yul\":1011:1020   */\n      dup4\n        /* \"#utility.yul\":1007:1024   */\n      add\n        /* \"#utility.yul\":1000:1047   */\n      mstore\n        /* \"#utility.yul\":1064:1195   */\n      tag_36\n        /* \"#utility.yul\":1190:1194   */\n      dup2\n        /* \"#utility.yul\":1064:1195   */\n      tag_25\n      jump\t// in\n    tag_36:\n        /* \"#utility.yul\":1056:1195   */\n      swap1\n      pop\n        /* \"#utility.yul\":783:1202   */\n      swap2\n      swap1\n      pop\n      jump\t// out\n        /* \"#utility.yul\":1208:1285   */\n    tag_26:\n        /* \"#utility.yul\":1245:1252   */\n      0x00\n        /* \"#utility.yul\":1274:1279   */\n      dup2\n        /* \"#utility.yul\":1263:1279   */\n      swap1\n      pop\n        /* \"#utility.yul\":1208:1285   */\n      swap2\n      swap1\n      pop\n      jump\t// out\n        /* \"#utility.yul\":1291:1471   */\n    tag_27:\n        /* \"#utility.yul\":1339:1416   */\n      0x4e487b7100000000000000000000000000000000000000000000000000000000\n        /* \"#utility.yul\":1336:1337   */\n      0x00\n        /* \"#utility.yul\":1329:1417   */\n      mstore\n        /* \"#utility.yul\":1436:1440   */\n      0x11\n        /* \"#utility.yul\":1433:1434   */\n      0x04\n        /* \"#utility.yul\":1426:1441   */\n      mstore\n        /* \"#utility.yul\":1460:1464   */\n      0x24\n        /* \"#utility.yul\":1457:1458   */\n      0x00\n        /* \"#utility.yul\":1450:1465   */\n      revert\n        /* \"#utility.yul\":1477:1668   */\n    tag_18:\n        /* \"#utility.yul\":1517:1520   */\n      0x00\n        /* \"#utility.yul\":1536:1556   */\n      tag_40\n        /* \"#utility.yul\":1554:1555   */\n      dup3\n        /* \"#utility.yul\":1536:1556   */\n      tag_26\n      jump\t// in\n    tag_40:\n        /* \"#utility.yul\":1531:1556   */\n      swap2\n      pop\n        /* \"#utility.yul\":1570:1590   */\n      tag_41\n        /* \"#utility.yul\":1588:1589   */\n      dup4\n        /* \"#utility.yul\":1570:1590   */\n      tag_26\n      jump\t// in\n    tag_41:\n        /* \"#utility.yul\":1565:1590   */\n      swap3\n      pop\n        /* \"#utility.yul\":1613:1614   */\n      dup3\n        /* \"#utility.yul\":1610:1611   */\n      dup3\n        /* \"#utility.yul\":1606:1615   */\n      add\n        /* \"#utility.yul\":1599:1615   */\n      swap1\n      pop\n        /* \"#utility.yul\":1634:1637   */\n      dup1\n        /* \"#utility.yul\":1631:1632   */\n      dup3\n        /* \"#utility.yul\":1628:1638   */\n      gt\n        /* \"#utility.yul\":1625:1661   */\n      iszero\n      tag_42\n      jumpi\n        /* \"#utility.yul\":1641:1659   */\n      tag_43\n      tag_27\n      jump\t// in\n    tag_43:\n        /* \"#utility.yul\":1625:1661   */\n    tag_42:\n        /* \"#utility.yul\":1477:1668   */\n      swap3\n      swap2\n      pop\n      pop\n      jump\t// out\n        /* \"#utility.yul\":1674:1792   */\n    tag_28:\n        /* \"#utility.yul\":1761:1785   */\n      tag_45\n        /* \"#utility.yul\":1779:1784   */\n      dup2\n        /* \"#utility.yul\":1761:1785   */\n      tag_26\n      jump\t// in\n    tag_45:\n        /* \"#utility.yul\":1756:1759   */\n      dup3\n        /* \"#utility.yul\":1749:1786   */\n      mstore\n        /* \"#utility.yul\":1674:1792   */\n      pop\n      pop\n      jump\t// out\n        /* \"#utility.yul\":1798:2020   */\n    tag_20:\n        /* \"#utility.yul\":1891:1895   */\n      0x00\n        /* \"#utility.yul\":1929:1931   */\n      0x20\n        /* \"#utility.yul\":1918:1927   */\n      dup3\n        /* \"#utility.yul\":1914:1932   */\n      add\n        /* \"#utility.yul\":1906:1932   */\n      swap1\n      pop\n        /* \"#utility.yul\":1942:2013   */\n      tag_47\n        /* \"#utility.yul\":2010:2011   */\n      0x00\n        /* \"#utility.yul\":1999:2008   */\n      dup4\n        /* \"#utility.yul\":1995:2012   */\n      add\n        /* \"#utility.yul\":1986:1992   */\n      dup5\n        /* \"#utility.yul\":1942:2013   */\n      tag_28\n      jump\t// in\n    tag_47:\n        /* \"#utility.yul\":1798:2020   */\n      swap3\n      swap2\n      pop\n      pop\n      jump\t// out\n\n    auxdata: 0xa264697066735822122055de3755b0a4b74c5ca108f166fa9f95f744d0f6d6b8c9b75d9c09f301d4d87e64736f6c634300081e0033\n}\n",
				"bytecode": {
					"linkReferences": {},
					"object": "6080604052348015600e575f5ffd5b50335f5f6101000a81548173ffffffffffffffffffffffffffffffffffffffff021916908373ffffffffffffffffffffffffffffffffffffffff1602179055506102988061005b5f395ff3fe608060405260043610610021575f3560e01c8063d0e30db01461003a57610030565b366100305761002e610044565b005b610038610044565b005b610042610129565b005b5f3411610086576040517f08c379a000000000000000000000000000000000000000000000000000000000815260040161007d906101b3565b60405180910390fd5b3460015f3373ffffffffffffffffffffffffffffffffffffffff1673ffffffffffffffffffffffffffffffffffffffff1681526020019081526020015f205f8282546100d29190610207565b925050819055503373ffffffffffffffffffffffffffffffffffffffff167fe1fffcc4923d04b559f4d29a8bfc6cda04eb5b0d3c460751c2402c5c5cc9109c3460405161011f9190610249565b60405180910390a2565b610131610044565b565b5f82825260208201905092915050565b7f4a756d6c6168206465706f206861727573206c656269682062657361722064615f8201527f7269203000000000000000000000000000000000000000000000000000000000602082015250565b5f61019d602483610133565b91506101a882610143565b604082019050919050565b5f6020820190508181035f8301526101ca81610191565b9050919050565b5f819050919050565b7f4e487b71000000000000000000000000000000000000000000000000000000005f52601160045260245ffd5b5f610211826101d1565b915061021c836101d1565b9250828201905080821115610234576102336101da565b5b92915050565b610243816101d1565b82525050565b5f60208201905061025c5f83018461023a565b9291505056fea264697066735822122055de3755b0a4b74c5ca108f166fa9f95f744d0f6d6b8c9b75d9c09f301d4d87e64736f6c634300081e0033",
					"opcodes": "PUSH1 0x80 PUSH1 0x40 MSTORE CALLVALUE DUP1 ISZERO PUSH1 0xE JUMPI PUSH0 PUSH0 REVERT JUMPDEST POP CALLER PUSH0 PUSH0 PUSH2 0x100 EXP DUP2 SLOAD DUP2 PUSH20 0xFFFFFFFFFFFFFFFFFFFFFFFFFFFFFFFFFFFFFFFF MUL NOT AND SWAP1 DUP4 PUSH20 0xFFFFFFFFFFFFFFFFFFFFFFFFFFFFFFFFFFFFFFFF AND MUL OR SWAP1 SSTORE POP PUSH2 0x298 DUP1 PUSH2 0x5B PUSH0 CODECOPY PUSH0 RETURN INVALID PUSH1 0x80 PUSH1 0x40 MSTORE PUSH1 0x4 CALLDATASIZE LT PUSH2 0x21 JUMPI PUSH0 CALLDATALOAD PUSH1 0xE0 SHR DUP1 PUSH4 0xD0E30DB0 EQ PUSH2 0x3A JUMPI PUSH2 0x30 JUMP JUMPDEST CALLDATASIZE PUSH2 0x30 JUMPI PUSH2 0x2E PUSH2 0x44 JUMP JUMPDEST STOP JUMPDEST PUSH2 0x38 PUSH2 0x44 JUMP JUMPDEST STOP JUMPDEST PUSH2 0x42 PUSH2 0x129 JUMP JUMPDEST STOP JUMPDEST PUSH0 CALLVALUE GT PUSH2 0x86 JUMPI PUSH1 0x40 MLOAD PUSH32 0x8C379A000000000000000000000000000000000000000000000000000000000 DUP2 MSTORE PUSH1 0x4 ADD PUSH2 0x7D SWAP1 PUSH2 0x1B3 JUMP JUMPDEST PUSH1 0x40 MLOAD DUP1 SWAP2 SUB SWAP1 REVERT JUMPDEST CALLVALUE PUSH1 0x1 PUSH0 CALLER PUSH20 0xFFFFFFFFFFFFFFFFFFFFFFFFFFFFFFFFFFFFFFFF AND PUSH20 0xFFFFFFFFFFFFFFFFFFFFFFFFFFFFFFFFFFFFFFFF AND DUP2 MSTORE PUSH1 0x20 ADD SWAP1 DUP2 MSTORE PUSH1 0x20 ADD PUSH0 KECCAK256 PUSH0 DUP3 DUP3 SLOAD PUSH2 0xD2 SWAP2 SWAP1 PUSH2 0x207 JUMP JUMPDEST SWAP3 POP POP DUP2 SWAP1 SSTORE POP CALLER PUSH20 0xFFFFFFFFFFFFFFFFFFFFFFFFFFFFFFFFFFFFFFFF AND PUSH32 0xE1FFFCC4923D04B559F4D29A8BFC6CDA04EB5B0D3C460751C2402C5C5CC9109C CALLVALUE PUSH1 0x40 MLOAD PUSH2 0x11F SWAP2 SWAP1 PUSH2 0x249 JUMP JUMPDEST PUSH1 0x40 MLOAD DUP1 SWAP2 SUB SWAP1 LOG2 JUMP JUMPDEST PUSH2 0x131 PUSH2 0x44 JUMP JUMPDEST JUMP JUMPDEST PUSH0 DUP3 DUP3 MSTORE PUSH1 0x20 DUP3 ADD SWAP1 POP SWAP3 SWAP2 POP POP JUMP JUMPDEST PUSH32 0x4A756D6C6168206465706F206861727573206C65626968206265736172206461 PUSH0 DUP3 ADD MSTORE PUSH32 0x7269203000000000000000000000000000000000000000000000000000000000 PUSH1 0x20 DUP3 ADD MSTORE POP JUMP JUMPDEST PUSH0 PUSH2 0x19D PUSH1 0x24 DUP4 PUSH2 0x133 JUMP JUMPDEST SWAP2 POP PUSH2 0x1A8 DUP3 PUSH2 0x143 JUMP JUMPDEST PUSH1 0x40 DUP3 ADD SWAP1 POP SWAP2 SWAP1 POP JUMP JUMPDEST PUSH0 PUSH1 0x20 DUP3 ADD SWAP1 POP DUP2 DUP2 SUB PUSH0 DUP4 ADD MSTORE PUSH2 0x1CA DUP2 PUSH2 0x191 JUMP JUMPDEST SWAP1 POP SWAP2 SWAP1 POP JUMP JUMPDEST PUSH0 DUP2 SWAP1 POP SWAP2 SWAP1 POP JUMP JUMPDEST PUSH32 0x4E487B7100000000000000000000000000000000000000000000000000000000 PUSH0 MSTORE PUSH1 0x11 PUSH1 0x4 MSTORE PUSH1 0x24 PUSH0 REVERT JUMPDEST PUSH0 PUSH2 0x211 DUP3 PUSH2 0x1D1 JUMP JUMPDEST SWAP2 POP PUSH2 0x21C DUP4 PUSH2 0x1D1 JUMP JUMPDEST SWAP3 POP DUP3 DUP3 ADD SWAP1 POP DUP1 DUP3 GT ISZERO PUSH2 0x234 JUMPI PUSH2 0x233 PUSH2 0x1DA JUMP JUMPDEST JUMPDEST SWAP3 SWAP2 POP POP JUMP JUMPDEST PUSH2 0x243 DUP2 PUSH2 0x1D1 JUMP JUMPDEST DUP3 MSTORE POP POP JUMP JUMPDEST PUSH0 PUSH1 0x20 DUP3 ADD SWAP1 POP PUSH2 0x25C PUSH0 DUP4 ADD DUP5 PUSH2 0x23A JUMP JUMPDEST SWAP3 SWAP2 POP POP JUMP INVALID LOG2 PUSH5 0x6970667358 0x22 SLT KECCAK256 SSTORE 0xDE CALLDATACOPY SSTORE 0xB0 LOG4 0xB7 0x4C TLOAD LOG1 ADDMOD CALL PUSH7 0xFA9F95F744D0F6 0xD6 0xB8 0xC9 0xB7 TSTORE SWAP13 MULMOD RETURN ADD 0xD4 0xD8 PUSH31 0x64736F6C634300081E00330000000000000000000000000000000000000000 "
				},
				"gasEstimates": {
					"creation": {
						"codeDepositCost": "132800",
						"executionCost": "24439",
						"totalCost": "157239"
					},
					"external": {
						"": "infinite",
						"deposit()": "infinite"
					},
					"internal": {
						"_deposit()": "infinite"
					}
				},
				"methodIdentifiers": {
					"deposit()": "d0e30db0"
				}
			},
			"storageLayout": {
				"storage": [
					{
						"astId": 3,
						"contract": "contracts/learnings/1_SimpleWallet.sol:SimpleWallet",
						"label": "owner",
						"offset": 0,
						"slot": "0",
						"type": "t_address"
					},
					{
						"astId": 16,
						"contract": "contracts/learnings/1_SimpleWallet.sol:SimpleWallet",
						"label": "balances",
						"offset": 0,
						"slot": "1",
						"type": "t_mapping(t_address,t_uint256)"
					}
				],
				"types": {
					"t_address": {
						"encoding": "inplace",
						"label": "address",
						"numberOfBytes": "20"
					},
					"t_mapping(t_address,t_uint256)": {
						"encoding": "mapping",
						"key": "t_address",
						"label": "mapping(address => uint256)",
						"numberOfBytes": "32",
						"value": "t_uint256"
					},
					"t_uint256": {
						"encoding": "inplace",
						"label": "uint256",
						"numberOfBytes": "32"
					}
				}
			},
			"userdoc": {
				"kind": "user",
				"methods": {},
				"version": 1
			}
		}
	}
}